:0600000000F0BFEF00F06C
:100008005982FFFFFACF19F0FBCF1AF0E9CF1BF0A6
:10001800EACF1CF0E1CF1DF0E2CF1EF0D9CF1FF0E0
:10002800DACF20F0F3CF21F0F4CF22F0F6CF23F08F
:10003800F7CF24F0F8CF25F0F5CF26F09EAE33D0D9
:1000480096AE0BD03850010D000EF324D96E020E77
:10005800F420DA6E83CFDFFF382A3E50D8A496BC4E
:1000680021D084A084B203D00101032B1BD08B8044
:100078003E503D5CD8B00CD03D50010D000EF3242D
:10008800D96E030EF420DA6EDF508C6E3D2A09D04B
:10009800000E3D6E000E3E6E000E0101046F000E54
:1000A8008C6E8B909E9E9EAA03D0AE509FEC1AF049
:1000B800F2A242D081A202D0010E01D0000E156E2C
:1000C800166A0A0ED89015361636E82EFBD7D89041
:1000D8003730186E3630176E15501710366E1650AA
:1000E8001810376EF292344A352A0B0E3418351030
:1000F800D8A422D0420E0E6E000E0F6EF0EC18F04F
:100108000009D8B404D0010E0101016F0DD0420ED0
:10011800066E000E076ED8903730166E3630156EA4
:100128001550086E57EC17F0000E376E000E366E3D
:10013800000E356E000E346E26C0F5FF25C0F8FFA0
:1001480024C0F7FF23C0F6FF22C0F4FF21C0F3FF4D
:1001580020C0DAFF1FC0D9FF1EC0E2FF1DC0E1FFAB
:100168001CC0EAFF1BC0E9FF1AC0FBFF19C0FAFF59
:1001780059921100FFFF03EF15F0FFFF000E010178
:10018800D66F000E0101E16F000E0101D26F808071
:10019800010E0101F36F000E0101026F9B0E276E25
:1001A800010E286E000E2A6E200E296EBFEC19F083
:1001B80007EC1BF047EC1AF04F0E0001896F7C0E1C
:1001C80000018A6FC20E00018B6F7C0E00018C6FDC
:1001D800F4EC06F02FEC1AF031EC1BF0E7EC0CF025
:1001E8000001C4510001C511D8A40AD00D0E0001A8
:1001F800896F780E00018A6FF4EC06F03EEC1BF074
:10020800AA0E0001896F790E00018A6FF4EC06F0DE
:10021800E7EC1AF092EC1BF09EEC1BF0F70E0001D5
:10022800896F7F0E00018A6FF4EC06F0F29E9B0E38
:100238000001806F010E0001816FF7EC1AF00101D7
:10024800EB6FF28E0101EB510101D8A43ED0F29E72
:100258009B0E2C6E010E2D6E2BEC16F00101E86F33
:10026800F28E0101F351D8B405D00101E85141ECF7
:100278000AF02BD001010251D8A408D00101E805E9
:10028800D8A404D0010E0101026F1FD00101025150
:10029800D8B414D0020E0101E819D8A40FD0000E6A
:1002A8000101026F010E0101F36F700E0001896FE9
:1002B8007B0E00018A6FF4EC06F007D0000E0101F6
:1002C800026F0101E85115EC19F03850D8B437D055
:1002D80000C2ECF182840101EC510101D8B404D0D0
:1002E800070E0101EC6519D00001F6BF13D000011B
:1002F800F65104E10001F505D8A00CD0280E000144
:10030800896F790E00018A6FECC18BF000018C6B4C
:10031800F4EC06F077EC1BF012D00101EC51010D62
:10032800B10EF324F66E730EF420F76E0800FFFF8B
:10033800F5503818D8A403D0ECC1FBF0829404001F
:1003480080820001FB51D8B42AEF06F08084A4EC27
:100358001BF0ECEF05F001C2D7F10101D86B0201E7
:1003680003510101C96FC86B020102510101C8257F
:100378000101D96F000E0101C9210101DA6F0201E3
:1003880005510101C96FC86B020104510101C8255B
:100398000101E26F000E0101C9210101E36FE2C111
:1003A800C8F1E3C1C9F1060ED8900101C837C937B1
:1003B800E82EFAD70101D9510101C8270101DA5104
:1003C8000101C9230101D890C933C8330101D8906C
:1003D800C933C833D7C1CAF1D8C1CBF10E0ED890F2
:1003E8000101CA37CB37E82EFAD70101C8510101FC
:1003F800CA250101E66F0101C9510101CB210101A3
:10040800E76FE2C1C8F1E3C1C9F1060ED890010156
:10041800C837C937E82EFAD70101D9510101C827D1
:100428000101DA510101C923030E0101C817000EA9
:10043800C917070ED8900101C837C937E82EFAD76F
:10044800C8C1DBF1C9C1DCF180860001F6BF24D048
:100458000001F65105E1030E0001F55DD8A01CD09E
:100468008E0E0001896F750E00018A6FD7C18BF05F
:10047800D8C18CF0D9C18DF0DAC18EF0E2C18FF00D
:10048800E3C190F0E6C191F0E7C192F0DBC193F0CF
:10049800DCC194F0F4EC06F00101D85105E1040E3A
:1004A8000101D75DD8A017D00001F6BF10D0000118
:1004B800F65105E1020E0001F55DD8A008D06D0ED9
:1004C8000001896F7C0E00018A6FF4EC06F0FF0EC4
:1004D800DEEC19F097D30101E6510101F1191AE197
:1004E8000101E7510101F219D8A414D00001F6BFA7
:1004F8006ED00001F65105E1040E0001F55DD8A0AB
:1005080066D0B10E0001896F7D0E00018A6FF4EC90
:1005180006F05DD0E6C1C4F0E7C1C5F0830E000166
:10052800C66F030E0001C76F7BEC0EF00001C451CB
:100538000001C511D8A417D00001F6BF10D00001E2
:10054800F65105E1020E0001F55DD8A008D0D40EE1
:100558000001896F7B0E00018A6FF4EC06F0FF0E34
:10056800DEEC19F04FD30001F6BF10D00001F651B0
:1005780005E1040E0001F55DD8A008D0F50E0001D4
:10058800896F7E0E00018A6FF4EC06F00001F6BF59
:100598001AD00001F65105E1050E0001F55DD8A05D
:1005A80012D0000E0001B36F040EB26F830E00016B
:1005B800B46F030E0001B56F020E0001B76F000E95
:1005C800B66FF8EC12F0E6C1F1F1E7C1F2F1010EF5
:1005D800DEEC19F0000E0101F06F000EEF6F010163
:1005E800F05120E1800E0101EF5DD8B01BD0010170
:1005F800EF510101DB250101C86F0101F051010133
:10060800DC210101C96F830E0101C825D96E030ED3
:100618000101C921DA6EDF50DEEC19F00101EF4B60
:10062800F02BDDD7060E0001FB19D8A4EBD2000E83
:100638000101EE6F000EED6F000E0101F06F000E6C
:10064800EF6F0101F05126E1800E0101EF5DD8B096
:1006580021D00101EF510101DB250101C86F010122
:10066800F0510101DC210101C96F830E0101C82588
:10067800D96E030E0101C921DA6EDF500101CA6F7C
:100688000101CA510101ED27000EEE230101EF4BD4
:10069800F02BD7D70101ED51DEEC19F00101EE5135
:1006A800DEEC19F00001F6BFADD20001F65105E10C
:1006B800050E0001F55DD8A0A5D2CC0E0001896F0A
:1006C800780E00018A6FEDC18BF0EEC18CF001014C
:1006D800ED5100018D6F8E6BEDC1C8F1EEC1C9F10E
:1006E800C9C1C8F10101C96B0101C85100018F6F6F
:1006F800906BF4EC06F086D201C2DDF10101DE6BED
:10070800020103510101C96FC86B020102510101C5
:10071800C8250101DF6F000E0101C9210101E06F49
:10072800020105510101C96FC86B020104510101A1
:10073800C8250101E46F000E0101C9210101E56F1F
:10074800E4C1C8F1E5C1C9F1060ED8900101C83766
:10075800C937E82EFAD70101DF510101C827010185
:10076800E0510101C9230101D890C933C8330101FF
:10077800D890C933C833DDC1CAF1DEC1CBF10E0E42
:10078800D8900101CA37CB37E82EFAD70101C851F2
:100798000101CA250101E96F0101C9510101CB21FC
:1007A8000101EA6FE4C1C8F1E5C1C9F1060ED890AC
:1007B8000101C837C937E82EFAD70101DF51010115
:1007C800C8270101E0510101C923030E0101C8171F
:1007D800000EC917070ED8900101C837C937E82E8F
:1007E800FAD7C8C1D3F1C9C1D4F10001F6BF24D0EA
:1007F8000001F65105E1030E0001F55DD8A01CD0FB
:10080800530E0001896F750E00018A6FDDC18BF0F0
:10081800DEC18CF0DFC18DF0E0C18EF0E4C18FF055
:10082800E5C190F0E9C191F0EAC192F0D3C193F02B
:10083800D4C194F0F4EC06F00101DE5105E1040E98
:100848000101DD5DD8A017D00001F6BF10D000016E
:10085800F65105E1020E0001F55DD8A008D06D0E35
:100868000001896F7C0E00018A6FF4EC06F0FF0E20
:10087800DEEC19F0C7D1070E0001FB19D8A468D027
:10088800000E0101D16F000ED06F060E0101CE6F70
:10089800000E0101F06F000EEF6F0101F05125E12C
:1008A800800E0101EF5DD8B020D00101CE510101C9
:1008B800EF250101C86F000E0101F0210101C96F88
:1008C800000E0101C825D96E020E0101C921DA6E98
:1008D800DF500101CA6F0101CA510101D027000E82
:1008E800D1230101EF4BF02BD8D702018751010129
:1008F800C96FC86B020186510101CA6FCB6B010138
:10090800C8510101CA110101CC6F0101C95101018E
:10091800CB110101CD6F0101CC510101D01906E1C4
:100928000101CD510101D119D8B412D00001F551FE
:100938000001F611D8B408D0540E0001896F790E61
:1009480000018A6FF4EC06F0FF0EDEEC19F05AD1C4
:100958000101E9510101F1191AE10101EA5101010D
:10096800F219D8A414D00001F6BF51D00001F651F5
:1009780005E1040E0001F55DD8A049D0B10E0001D3
:10098800896F7D0E00018A6FF4EC06F040D0E9C152
:10099800C4F0EAC1C5F0830E0001C66F030E000162
:1009A800C76F7BEC0EF00001C4510001C511D8A43B
:1009B80017D00001F6BF10D00001F65105E1020E74
:1009C8000001F55DD8A008D0D40E0001896F7B0E18
:1009D80000018A6FF4EC06F0FF0EDEEC19F012D17C
:1009E8000001F6BF10D00001F65105E1040E000128
:1009F800F55DD8A008D0F50E0001896F7E0E0001C4
:100A08008A6FF4EC06F0E9C1F1F1EAC1F2F1000EE7
:100A18000101F06F000EEF6F0101F05131E1800E1E
:100A28000101EF5DD8B02CD0060E0101EF250101C0
:100A3800C86F000E0101F0210101C96F000E01010C
:100A4800C825D96E020E0101C921DA6E0101EF51E4
:100A58000101D3250101CA6F0101F0510101D4211F
:100A68000101CB6F830E0101CA25E16E030E01015E
:100A7800CB21E26EDFCFE7FF0101EF4BF02BCCD7A4
:100A8800E9C1C4F0EAC1C5F0830E0001C66F030EC8
:100A98000001C76FFAEC10F00001C4510001C51144
:100AA800D8A40CD04E0E0001896F7B0E00018A6F0E
:100AB800F4EC06F0FF0EDEEC19F0A4D0010EDEEC2B
:100AC80019F0A0D00201015181EC1BF0010EDEECFF
:100AD80019F098D00001F6BF10D00001F65105E1D9
:100AE800030E0001F55DD8A008D0B80E0001896F8B
:100AF8007F0E00018A6FF4EC06F0F29E550E00019D
:100B0800806F010E0001816FF7EC1AF00101EB6FA5
:100B1800F28E0101EB510101D8A404D0010EDEECE4
:100B280019F070D0FF0EDEEC19F06CD00001F6BFA2
:100B380010D00001F65105E1030E0001F55DD8A0C3
:100B480008D0F60E0001896F790E00018A6FF4EC67
:100B580006F0F29E550E0001806F010E0001816FB4
:100B6800F7EC1AF00101EB6FF28E0101EB51010174
:100B7800D8A412D0F29E550E2C6E010E2D6E2BECC1
:100B880016F00101CF6FF28E010EDEEC19F00101B3
:100B9800CF51DEEC19F036D0D40E0001896F790EF2
:100BA80000018A6FF4EC06F0010EDEEC19F0000E7D
:100BB800DEEC19F027D0730E0001896F7A0E000160
:100BC8008A6FFBC08BF000018C6BF4EC06F01AD036
:100BD8000001FB51010AD8B4AFEF01F0030AD8B401
:100BE8008BD5010AD8B476D7070AD8B49FD7010A9B
:100BF800D8B468D7030AD8B4AFEF01F0010AD8B463
:100C08007BD5D9D73F50D8B421D00001F6BF14D036
:100C18000001F65105E1040E0001F55DD8A00CD0E5
:100C2800400E0001896F7E0E00018A6F3FC08BF075
:100C380000018C6BF4EC06F0F29E77EC1BF063EC91
:100C48001BF0010E0101D26FF28E8282F29E420EDB
:100C58000001806F000E0001816FF7EC1AF00101AE
:100C6800EB6FF28E0101EB510101D8A41BD0420EAB
:100C78002C6E000E2D6E2BEC16F00101D56F39503D
:100C8800D8B40CD0490E0001896F7D0E00018A6F1F
:100C9800D5C18BF000018C6BF4EC06F00101D55145
:100CA800F1EC13F001010051D8B416D00001F6BFE1
:100CB80010D00001F65105E1020E0001F55DD8A043
:100CC80008D04C0E0001896F7A0E00018A6FF4EC8F
:100CD80006F0000E0101006F01010151D8B416D0D1
:100CE8000001F6BF10D00001F65105E1020E000127
:100CF800F55DD8A008D0250E0001896F7A0E000195
:100D08008A6FF4EC06F0000E0101016F96AA13D069
:100D18000001F6BF0FD00001F65104E10001F5050E
:100D2800D8A008D0920E0001896F7B0E00018A6F4F
:100D3800F4EC06F0969A0101D2510101D8B41BD007
:100D480001010451D8A417D00001F6BF10D000014A
:100D5800F65105E1030E0001F55DD8A008D0630E39
:100D68000001896F7D0E00018A6FF4EC06F0000E19
:100D78000101D26F829203C1E1F10101E151010148
:100D8800D619D8B41AEF01F00001F6BF25D000013A
:100D9800F65105E1020E0001F55DD8A01DD06E0EDA
:100DA8000001896F780E00018A6F0101D651010197
:100DB800C86FC96B0101C81FC91FC84BC92B0101E6
:100DC800E1510101C82500018B6F000E0101C92105
:100DD80000018C6FF4EC06F0E1C1D6F11AEF01F0D6
:100DE800FFFF8B0E0001AC6F000E0001AD6F34D316
:100DF800250E0001B119D8B405D00001B1518AEC13
:100E08001BF02AD3000E0001B06F000EAF6F000E6A
:100E18000001AE6F05D00001AE850001894B8A2B19
:100E280089C0F6FF8AC0F7FF0800FFFFF550300AB7
:100E3800D8B4F1D789C0F6FF8AC0F7FF0800FFFFD2
:100E4800F550C5EC1AF0D8A042D0000E0001B06FE2
:100E5800000EAF6FAFC027F0B0C028F0000E2A6EAA
:100E68000A0E296E8AEC1AF027C0AFF028C0B0F03D
:100E7800D00E00019D6FFF0E00019E6F89C0F6FF26
:100E88008AC0F7FF0800FFFFF55000019F6FA06BB5
:100E980000019D5100019F2700019E510001A023E0
:100EA80000019F510001AF270001A0510001B023AC
:100EB8000001894B8A2B89C0F6FF8AC0F7FF08001A
:100EC800FFFFF550C5EC1AF0D8A0CAD0C3D789C027
:100ED800F6FF8AC0F7FF0800FFFFF5502A0AD8A4DA
:100EE800BFD0ACC0D9FFADC0DAFFDECFAFF0DDCFE9
:100EF800B0F0020E0001AC27000EAD230001894BB3
:100F08008A2BAED00001AE89ABD00001AE8FD1D014
:100F1800ACC0D9FFADC0DAFFDECFA4F0DDCFA5F0BD
:100F2800020E0001AC27000EAD230001A451000100
:100F3800A511D8A406D0B10E0001A46F7F0E000140
:100F4800A56F000E0001A76F000EA66F03D0000169
:100F5800A64BA72B0001A6510001A42500019D6FF7
:100F68000001A7510001A52100019E6F9DC0F6FF59
:100F78009EC0F7FFF86A050EF76404D00800FFFF6B
:100F8800F55005D0F6CFE1FFF7CFE2FFE7500009B3
:100F9800D8A4DDD70001AF510001A65D0001B05112
:100FA8000001A759D8B009D00001A6510001AF5FD0
:100FB8000001A7510001B05B09D0000E0001B06F1D
:100FC800000EAF6F03D0200E8AEC1BF00001AF07B4
:100FD800D8A0B0070001AF29F6E10001B029D8B4C4
:100FE80017D0F1D7A4C0F6FFA5C0F7FFF86A050E21
:100FF800F76404D00800FFFFF55005D0F6CFE1FFF5
:10100800F7CFE2FFE7508AEC1BF00001A44BA52BB9
:101018000001A607D8A0A7070001A629E3E100015F
:10102800A729D8B419D2DED7ACC0D9FFADC0DAFF32
:10103800DF500001B16F020E0001AC27000EAD2396
:10104800B10E0001A46F000E0001A56F000E000193
:10105800A76F010EA66F9ED7C00E0001AE1329D050
:1010680089C0F6FF8AC0F7FF0001894B8A2B080068
:10107800FFFFF5CFB1F00001B151000AD8B4FBD1A0
:10108800580AD8B442D73B0AD8B4CED7070AD8B43E
:1010980010D00D0AD8B40DD0050AD8B433D71F0A1A
:1010A800D8B436D7060AD8B4D7D70D0AD8B42DD7AE
:1010B800C7D7AEC09DF0C00E00019D17D8A434D08C
:1010C8000001AEA90ED0ACC0D9FFADC0DAFFDECFAB
:1010D800A8F0DECFA9F0DECFAAF0DECFABF0040E89
:1010E8000FD0ACC0D9FFADC0DAFFDECFA8F0DDCF9E
:1010F800A9F00001000EA9BFFF0EAA6FAB6F020E88
:101108000001AC27000EAD230001ABAF87D0030E62
:101118000001AE130001AB1FAA1FA91FA86D000E86
:10112800A923AA23AB237AD00001AEA90ED0ACC064
:10113800D9FFADC0DAFFDECFA8F0DECFA9F0DECF51
:10114800AAF0DECFABF0040E10D0ACC0D9FFADC012
:10115800DAFFDECF9DF0DDCF9EF09DC0A8F09EC0E7
:10116800A9F00001AA6BAB6B020E0001AC27000EC0
:10117800AD2354D0010E0001B16F0A0E0001B11960
:10118800D8B458D00001B151040D690EF324F66E9D
:10119800730EF420F76E0900FFFFF5500001A85DFB
:1011A8000900FFFFF5500001A9590900FFFFF5509C
:1011B8000001AA590900FFFFF5500001AB59D8A05A
:1011C80039D00001B12BD9D7010E0001B16F080E3B
:1011D8000001B119D8B42ED00001B151040D910EFF
:1011E800F324F66E730EF420F76E0900FFFFF55036
:1011F8000001A85D0900FFFFF5500001A959090089
:10120800FFFFF5500001AA590900FFFFF550000142
:10121800AB59D8A00FD00001B12BD9D70001AE51DE
:10122800C00B000AD8B4A6D7800AD8B4CDD7400AD4
:10123800D8B4A0D70001AF510001B011D8B40BD079
:10124800AEC09DF0030E00019D17D8B404D0000174
:10125800AF07D8A0B007800E0001B1BF7F0E000114
:101268009D6F0001AF510001B15D0001B051800ACE
:1012780000019D59D8B00BD00001B1510001AF5FFA
:10128800000E0001B1BFFF0E0001B05B05D0000EDB
:101298000001B06F000EAF6F0001AEA518D0AEC050
:1012A8009DF0030E00019D17D8B403D02D0E8AECD3
:1012B8001BF00001AF510001B011D8B425D0300E99
:1012C8008AEC1BF00001AF07D8A0B007F2D70001E5
:1012D800AF510001B011D8B40DD0200E8AEC1BF02C
:1012E8000001AF07D8A0B0070001AF510001B0114D
:1012F800D8A4F3D7AEC09DF0030E00019D17D8B453
:1013080003D02D0E8AEC1BF00001B1510001A26F31
:10131800A36BA2BFA30795D0A2C09DF0A3C09EF067
:101328000001D8909D379E370001D8909D379E3791
:10133800690E00019D25F66E730E9E21F76E090059
:10134800FFFFF5CF2BF00900FFFFF5CF2CF00900C8
:10135800FFFFF5CF2DF00A00FFFFF5CF2EF0A8C054
:1013680027F0A9C028F0AAC029F0ABC02AF0E8EC01
:1013780015F027C080F028C081F029C082F02AC06B
:1013880083F00A0E0001846F000E856F000E866FD1
:10139800000E876F54EC15F000018051300F0001EA
:1013A800B16F4BD0A8C027F0A9C028F0AAC029F077
:1013B800ABC02AF0A2C09DF0A3C09EF00001D89057
:1013C8009D379E370001D8909D379E37910E0001BA
:1013D8009D25F66E730E9E21F76E0900FFFFF5CF6F
:1013E8002BF00900FFFFF5CF2CF00900FFFFF5CF28
:1013F8002DF00A00FFFFF5CF2EF0E8EC15F027508E
:101408000F0B0001A16F0001A151010D070EF3247C
:10141800F66E7F0EF420F76E0800FFFFF5CFB1F0EF
:101428000CD00001AE51C00B000AD8B475D7800AA1
:10143800D8B4B8D7400AD8B46FD70001B1518AECF4
:101448001BF00001A207D8A0A3070001A229E9E127
:101458000001A329D8A4E5D789C0F6FF8AC0F7FF01
:101468000001894B8A2B0800FFFFF5CFB1F000017E
:10147800B151D8A4BDD41200FFFFFFFF0101C76F0F
:101488000D0E0101C719D8B405D00A0E0101C719FC
:10149800D8A461D20A0E8AEC1BF00001FC51010DA0
:1014A800050EF324D96E010EF420DA6E000EDF6EFD
:1014B800050E276E010E286EE90E296E7F0E2A6E24
:1014C800A3EC18F027502810D8B41CD0050E276EAE
:1014D800010E286EFC0E296E7F0E2A6EA3EC18F002
:1014E80027502810D8B40ED0050E276E010E286E8E
:1014F800FA0E296E7F0E2A6EA3EC18F027502810DA
:10150800D8A403D0A0EC14F01AD2050E276E010E51
:10151800286EA90E296E7F0E2A6EA3EC18F02750AC
:101528002810D8A41DD02A0E0001896F7E0E000154
:101538008A6FF4EC06F031EC1BF0E7EC0CF00001DC
:10154800C4510001C511D8A4FAD10D0E0001896F4C
:10155800780E00018A6FF4EC06F03EEC1BF0EFD138
:10156800050E276E010E286E910E296E7F0E2A6ECB
:10157800A3EC18F027502810D8A41CD03950D8A4B0
:1015880002D0010E01D0000E396E3950D8B409D0FE
:101598002F0E0001896F7D0E00018A6FF4EC06F0B2
:1015A800CED1F50E0001896F7B0E00018A6FF4EC35
:1015B80006F0C5D1050E276E010E286ED80E296ECD
:1015C8007F0E2A6EA3EC18F027502810D8A403D059
:1015D8003EEC1BF0B4D1050E276E010E286EAB0E43
:1015E800296E7F0E2A6EA3EC18F027502810D8A475
:1015F80011D015EC1BF0FB0E0001896F780E00016D
:101608008A6FF4EC06F057EC1BF077EC1BF0B6ECA5
:101618001BF095D1050E276E010E286EF30E296E6C
:101628007F0E2A6EA3EC18F027502810D8A410D0EB
:1016380023EC1BF0AA0E0001896F7E0E00018A6F51
:10164800F4EC06F00A0E8AEC1BF0BAEC1BF077D12A
:10165800050E276E010E286EDE0E296E7F0E2A6E8D
:10166800A3EC18F027502810D8A40DD057EC1BF085
:1016780077EC1BF0E50E0001896F7A0E00018A6F86
:10168800F4EC06F05CD1050E276E010E286EEE0E06
:10169800296E7F0E2A6EA3EC18F027502810D8A4C4
:1016A8000CD0000E0101F36F3E0E0001896F780E19
:1016B80000018A6FF4EC06F042D1050E276E010E88
:1016C800286EA10E296E7F0E2A6EA3EC18F0275003
:1016D8002810D8A469D0CA0E0001896F7D0E0001B8
:1016E8008A6FFBC08BF000018C6BF4EC06F0970E50
:1016F8000001896F7D0E00018A6F38C08BF00001F0
:101708008C6BF4EC06F03850D8B419D0180E0001E0
:10171800896F7F0E00018A6FF4EC06F0000E00015D
:10172800B36F040EB26F000E0001B46F020E000119
:10173800B56F38C0B6F00001B76BF8EC12F0140EB4
:101748000001896F7D0E00018A6F3EC08BF0000199
:101758008C6BF4EC06F0BF0E0001896F7A0E000165
:101768008A6F3DC08BF000018C6BF4EC06F03E50A4
:10177800D8B4E5D0E30E0001896F7E0E00018A6FB0
:10178800F4EC06F0000E0001B36F040EB26F000E09
:101798000001B46F030E0001B56F3EC0B6F0000142
:1017A800B76BF8EC12F0CBD0050E276E010E286E41
:1017B800990E296E7F0E2A6EA3EC18F02750281078
:1017C800D8A40FD0690E0001896F7C0E00018A6FC2
:1017D800C20E00018B6F7C0E00018C6FF4EC06F0DA
:1017E800AED0050E276E010E286EBF0E296E7F0E35
:1017F8002A6E000E2C6E060E2B6EA3EC15F02750E9
:101808002810D8A434D00A0E0101C36F010E0101BB
:10181800C46F03D00101C34BC42BC3C1D9FFC4C1DA
:10182800DAFF200EDE18D8B4F5D7C3C180F0C4C1E2
:1018380081F0000E0001826F000E0001836F000E20
:101848000001856F000E846FDAEC0FF080C0F5F0B0
:1018580081C0F6F0290E0001896F7F0E00018A6FA2
:10186800F5C08BF0F6C08CF0F4EC06F068D0050EED
:10187800276E010E286ED20E296E7F0E2A6E000E7C
:101888002C6E050E2B6EA3EC15F027502810D8A44B
:101898004CD0090E0101C56F010E0101C66F03D0BE
:1018A8000101C54BC62BC5C1D9FFC6C1DAFF200E41
:1018B800DE18D8B4F5D7C5C180F0C6C181F0000ED6
:1018C8000001826F000E0001836F000E0001856F1A
:1018D800000E846FDAEC0FF080C0C1F181C0C2F154
:1018E800C1C1C4F0C2C1C5F0830E0001C66F030EAA
:1018F8000001C76F7BEC0EF00001C4510001C51157
:10190800D8B41DD0000E0001B36F040EB26F830E61
:101918000001B46F030E0001B56F020E0001B76F2E
:10192800000EB66FF8EC12F00AD0D10E0001896FE4
:101938007E0E00018A6FF4EC06F0A0EC14F0F70EAE
:101948000001896F7F0E00018A6FF4EC06F0000E2B
:101958000001FC6F36D07F0E0101C719D8B405D03D
:10196800080E0101C719D8A414D00001FC510001C8
:10197800D8B40CD0080E8AEC1BF0200E8AEC1BF0B1
:10198800080E8AEC1BF00001FC071BD098EC1BF03A
:1019980018D04F0E0001FC6112D00101C7518AEC2A
:1019A8001BF00001FC51010D050EF324D96E010E48
:1019B800F420DA6EC7C1DFFF0001FC2B02D098ECDF
:1019C8001BF01200FFFFFFFF000E0001F36F000E77
:1019D800F26F0001F35113E10A0E0001F25DD8B075
:1019E8000ED0DA0E0001F225D96E000E0001F321A7
:1019F800DA6EFF0EDF6E0001F24BF32BEAD7DA0E38
:101A0800286E000E296E000E2B6E0A0E2A6E7FECD1
:101A180019F0B2EC1BF0000E0001B26F000EB36FAC
:101A2800000EB46F000EB56FEA0E0001B66F000E1F
:101A38000001B76F000E0001B96F010EB86F000EFC
:101A4800FBEC11F00001B2510001B311D8B424D15C
:101A58005A500001EA19D8B40DD0160E0001896F4A
:101A6800750E00018A6FEAC08BF000018C6BF4ECF4
:101A780006F012D1AA0E0001B26F010EB36F000E6C
:101A8800B46F000EB56FEA0E0001B66F000E0001CC
:101A9800B76F000E0001B96F050EB86F080EFBECAA
:101AA80011F00001B2510001B311D8B4F5D05A5069
:101AB8000001EA19D8B40DD06F0E0001896F760EB7
:101AC80000018A6FEAC08BF000018C6BF4EC06F021
:101AD800E3D0EDC0C6F00001C76BC86BC96BC8C0C6
:101AE800C9F0C7C0C8F0C6C0C7F00001C66BECC0DB
:101AF800CAF00001CB6BCC6BCD6BCBC0CDF0CAC0AC
:101B0800CCF00001CB6BCA6BEBC0CEF00001CF6B01
:101B1800D06BD16BCEC0D1F00001D06BCF6BCE6B48
:101B28000001CA510001CE110001D26F0001CB5152
:101B38000001CF110001D36F0001CC510001D01179
:101B48000001D46F0001CD510001D1110001D56F02
:101B58000001C6510001D2110001D66F0001C75122
:101B68000001D3110001D76F0001C8510001D41141
:101B78000001D86F0001C9510001D5110001D96FCA
:101B88000001EE510001D6110001E46F0001D751A8
:101B98000001E56F0001D8510001E66F0001D9513D
:101BA8000001E76F990E0001896F7A0E00018A6FB4
:101BB800E4C08BF0E5C08CF0E6C08DF0E7C08EF095
:101BC800F4EC06F0000E0001E96F000EE86F00016A
:101BD800E8510001F75D0001F851800A0001C66F65
:101BE8000001E951800A0001C659D8B009D0010E98
:101BF8000001896F760E00018A6FF4EC06F04CD074
:101C0800000E0001B26F000EB36F000EB46F000E2D
:101C1800B56FEA0E0001B66F000E0001B76F000E37
:101C28000001B96F010EB86F370EFBEC11F000011F
:101C3800B2510001B311D8B42FD05A500001EA199B
:101C4800D8B40DD0D80E0001896F740E00018A6FC8
:101C5800EAC08BF000018C6BF4EC06F01DD0000E8E
:101C68000001B26F000EB36F000EB46F400EB56F77
:101C7800EA0E0001B66F000E0001B76F000E0001FA
:101C8800B96F010EB86F290EFBEC11F00001B251CB
:101C98000001B311D8A405D0000E0001C56F000ED5
:101CA80023D00001E84BE92B40500001EA19D8A4E1
:101CB8008ED70001F6BF14D00001F65105E1050EDC
:101CC8000001F55DD8A00CD08A0E0001896F7C0E4A
:101CD80000018A6FEAC08BF000018C6BF4EC06F00F
:101CE800000E0001C56F010EC46F1200FFFFFFFF59
:101CF8000001CA69C4C0B2F0C5C0B3F00001B46B3A
:101D0800B56BCA0E0001B66F000E0001B76F000E6A
:101D18000001B96F010EB86F110EFBEC11F0000154
:101D2800B2510001B311D8B4FAD040500001CA1919
:101D3800D8B40DD0510E0001896F740E00018A6F5E
:101D4800CAC08BF000018C6BF4EC06F0E8D0000EF2
:101D58000001D76F000ED66F0001D6510001F75D64
:101D68000001F851800A0001C86F0001D751800AAC
:101D78000001C859D8B009D00C0E0001896F770E40
:101D880000018A6FF4EC06F0CAD0CA0E286E000E65
:101D9800296E000E2B6E010E2A6E15EC1AF000014A
:101DA800F6BF14D00001F65105E1050E0001F55DFE
:101DB800D8A00CD0DE0E0001896F7C0E00018A6F5E
:101DC800CAC08BF000018C6BF4EC06F00001D64B16
:101DD800D72B0001FA510001CA19D8A4BDD7C6C033
:101DE80028F0C7C029F0020E2B6E000E2A6E15ECE3
:101DF8001AF0CA0E286E000E296E000E2B6E020E07
:101E08002A6E15EC1AF00001F6BF18D00001F65141
:101E180005E1040E0001F55DD8A010D0BE0E00014A
:101E2800896F7E0E00018A6FCAC08BF000018C6B2F
:101E3800CBC08DF000018E6BF4EC06F00001CA51A6
:101E48000001C96FC86B0001CB510001C825000112
:101E5800D26F0001000E0001C9210001D36F000EEE
:101E68000001816F000E806FC6C082F0C7C083F08A
:101E7800020E0001856F000E846FCAEC18F080C056
:101E8800D4F081C0D5F00001D4510001D21906E187
:101E98000001D5510001D319D8B411D0980E000112
:101EA800896F740E00018A6FD2C08BF0D3C08CF09A
:101EB800D4C08DF0D5C08EF0F4EC06F030D000011F
:101EC800F6BF10D00001F65105E1040E0001F55DE2
:101ED800D8A008D06C0E0001896F7F0E00018A6FB0
:101EE800F4EC06F0000E0001D76F000ED66F00016B
:101EF800D6510001F75D0001F851800A0001C86F52
:101F08000001D751800A0001C859D8B00DD0A70EDA
:101F18000001896F770E00018A6FF4EC06F0000E5D
:101F28000001C56F000E3FD0CA0E286E000E296E44
:101F3800000E2B6E010E2A6E15EC1AF00001F6BF8A
:101F480014D00001F65105E1050E0001F55DD8A099
:101F58000CD0DE0E0001896F7C0E00018A6FCAC0AA
:101F68008BF000018C6BF4EC06F00001D64BD72BFC
:101F78000001CA29D8A4BBD70001F6BF10D00001C0
:101F8800F65105E1050E0001F55DD8A008D05C0EFC
:101F98000001B26F7F0E0001B36FE5EC16F0000E82
:101FA8000001C56F010EC46F1200FFFFFFFF80C064
:101FB800D9FF81C0DAFFDF5000018F6F0001804B2D
:101FC800812B00018F5175EC1AF0D8B0F0D7000EB4
:101FD80000018B6F000E8C6F000E8D6F000E8E6FE0
:101FE800000E00018A6F2D0E00018F19D8A408D0A9
:101FF800010E00018A6F09D00001804B812B0DD0A2
:102008002B0E00018F19D8A408D080C0D9FF81C039
:10201800DAFFDF5000018F6FEFD7300E00018F1904
:10202800D8A43CD080C0D9FF81C0DAFFDF500001BE
:102038008F6F0001804B812B0001845100018511B5
:10204800D8B407D0100E0001841900018511D8A456
:102058001AD0780E00018F19D8B405D0580E000197
:102068008F19D8A410D0000E0001856F100E846F50
:1020780080C0D9FF81C0DAFFDF5000018F6F0001F7
:10208800804B812B0BD00001845100018511D8A40D
:1020980005D0000E0001856F080E846F0001845181
:1020A80000018511D8A405D0000E0001856F0A0E25
:1020B800846F00018F515FEC1AF0D8A008D000019E
:1020C8008F514BEC1BF0C90F00018F6F09D0000135
:1020D8008F51C5EC1AF0D8A047D0300E00018F5FA1
:1020E80000018F510001866F876B00018451000148
:1020F800865D00018751800A0001886F00018551C3
:10210800800A00018859D8B02FD084C027F085C034
:1021180028F0000E28BEFF0E296E2A6E8BC02BF009
:102128008CC02CF08DC02DF08EC02EF0F3EC17F083
:1021380000018F51272400018B6F000E2820000119
:102148008C6F000E292000018D6F000E2A200001DF
:102158008E6F80C0D9FF81C0DAFFDF5000018F6F1A
:102168000001804B812BA5D700018251000183110A
:10217800D8B412D0FF0E000180250001866FFF0E33
:10218800000181210001876F82C0D9FF83C0DAFF77
:1021980086C0DEFF87C0DDFF00018A510001D8B488
:1021A8001BD08BC086F08CC087F08DC088F08EC0A5
:1021B80089F00001861F871F881F891F862B000E44
:1021C80087238823892386C080F087C081F088C050
:1021D80082F089C083F008D08BC080F08CC081F079
:1021E8008DC082F08EC083F01200FFFFFFFFC4C0D5
:1021F800B2F0C5C0B3F00001B46BB56BC90E0001F5
:10220800B66F000E0001B76F000E0001B96F010E26
:10221800B86F180EFBEC11F00001B2510001B311B8
:10222800D8B487D040500001C919D8B40DD0090ED0
:102238000001896F740E00018A6FC9C08BF000011C
:102248008C6BF4EC06F075D0FAC0C9F0C90E286E94
:10225800000E296E000E2B6E010E2A6EFBEC19F093
:10226800C6C028F0C7C029F0020E2B6E000E2A6ED9
:10227800FBEC19F00001C9690001CA69C90E286E92
:10228800000E296E000E2B6E020E2A6EFBEC19F062
:10229800C90E286E000E296E000E2B6E010E2A6ED6
:1022A80015EC1AF00001F6BF14D00001F65105E153
:1022B800040E0001F55DD8A00CD0A60E0001896FB0
:1022C8007C0E00018A6FC9C08BF000018C6BF4ECA6
:1022D80006F00001F9510001C919D8B40DD0BB0EA0
:1022E8000001896F730E00018A6FC9C08BF000016D
:1022F8008C6BF4EC06F01DD0000E0001D26F000EBE
:10230800D16F0001D1510001F75D0001F851800A39
:102318000001C86F0001D251800A0001C859D8B025
:102328000DD0400E0001896F770E00018A6FF4EC22
:1023380006F0000E0001C56F000E56D0C90E286EBB
:10234800000E296E000E2B6E010E2A6E15EC1AF087
:102358000001F6BF14D00001F65105E1050E000199
:10236800F55DD8A00CD0130E0001896F7C0E00011A
:102378008A6FC9C08BF000018C6BF4EC06F0000189
:10238800D14BD22B0001C929D8A4BBD70001F6BF75
:1023980014D00001F65105E1040E0001F55DD8A046
:1023A8000CD09D0E0001896F780E00018A6FD1C094
:1023B8008BF0D2C08CF0F4EC06F00001F6BF10D020
:1023C8000001F65105E1050E0001F55DD8A008D021
:1023D8004B0E0001B26F7F0E0001B36FE5EC16F0F3
:1023E800000E0001C56F010EC46F1200FFFFFFFF52
:1023F8000001BD6F0001BD5140090001BE6FB5C0AD
:10240800BFF0B4C0C0F0B3C0C1F0B2C0C2F0BE0EDD
:102418002F6E000E306E000E326E050E316E4CECD3
:1024280018F00001BA6F7F0E0001BA170001D880BA
:10243800BA350001C36F0001F6BF28D00001F6517C
:1024480005E1040E0001F55DD8A020D0A40E00011E
:10245800896F760E00018A6FBEC08BF000018C6B0D
:10246800BFC08DF000018E6BC0C08FF00001906B73
:10247800C1C091F00001926BC2C093F00001946B4F
:10248800C3C095F00001966BF4EC06F0BE0E286E02
:10249800000E296E000E2B6E060E2A6E7FEC19F0C8
:1024A8000001F6BF28D00001F65105E1050E000134
:1024B800F55DD8A020D0740E0001896F770E000159
:1024C8008A6FBEC08BF000018C6BBFC08DF000011D
:1024D8008E6BC0C08FF00001906BC1C091F00001FD
:1024E800926BC2C093F00001946BC3C095F00001D9
:1024F800966BF4EC06F0000E0001BC6F000EBB6F8B
:102508000001BB510001F75D0001F851800A00018C
:10251800BA6F0001BC51800A0001BA59D8B00DD079
:10252800D80E0001896F760E00018A6FF4EC06F070
:10253800000E0001B36F000E54D0B6C028F0B7C02B
:1025480029F0000E2B6E010E2A6E15EC1AF0000110
:10255800F6BF1CD00001F65105E1050E0001F55D3E
:10256800D8A014D0E80E0001896F7C0E00018A6F94
:10257800B6C0D9FFB7C0DAFFDF500001BA6F00015B
:10258800BA5100018B6F8C6BF4EC06F00001BB4B69
:10259800BC2BB6C0D9FFB7C0DAFF0001DFBEB0D789
:1025A8000001B9BF1AD00001B95105E1020E0001BE
:1025B800B85DD8A012D0010E0001B625286E000E15
:1025C8000001B721296EFF0E0001B8252A6EFF0E03
:1025D8000001B9212B6E15EC1AF0000E0001B36F43
:1025E800010EB26F1200FFFFFFFF000E0001BA6F6D
:1025F800000EB96FE6D00001B7BF0ED00001B75189
:1026080005E1100E0001B65DD8A006D0000E00014D
:10261800BE6F100EBD6F04D0B6C0BDF0B7C0BEF01F
:10262800850E0001896F7F0E00018A6FB2C08BF0A2
:10263800B3C08CF0980E00018D6F7A0E00018E6F7A
:10264800B9C08FF0BAC090F0F4EC06F0000E0001AB
:10265800C06F000EBF6F1DD0CC0E0001896F7F0EBA
:1026680000018A6F0001BF510001B425D96E000135
:10267800C0510001B521DA6EDF500001B86F0001CA
:10268800B85100018B6F8C6BF4EC06F00001BF4B66
:10269800C02B0001BD510001BF5D0001C051800A7F
:1026A8000001B86F0001BE51800A0001B859D8A0D6
:1026B800D3D7970E0001896F7A0E00018A6FF4EC68
:1026C80006F0790E0001896F7F0E00018A6FB2C093
:1026D8008BF0B3C08CF0980E00018D6F7A0E00015C
:1026E8008E6FF4EC06F0000E0001C06F000EBF6F95
:1026F80038D00001BF510001B425D96E0001C05186
:102708000001B521DA6EDF50D6EC1AF027502810F8
:10271800D8A406D0000E0001BC6F2E0EBB6F12D0DD
:102728000001BF510001B425D96E0001C05100015C
:10273800B521DA6EDF500001B86F0001B851000111
:10274800BB6FBC6BE40E0001896F7F0E00018A6FBE
:10275800BBC08BF0BCC08CF0F4EC06F00001BF4BA2
:10276800C02B0001BD510001BF5D0001C051800AAE
:102778000001B86F0001BE51800A0001B859D8A005
:10278800B8D7970E0001896F7A0E00018A6FF4ECB2
:1027980006F00001BD510001B65F0001BE51000105
:1027A800B75B0001BD510001B4270001BE51000113
:1027B800B5230001BD510001B9270001BE51000138
:1027C800BA230001B7BF07D00001B75103E10001E8
:1027D800B605D8B010D71200FFFFFFFF0001B26F97
:1027E800F00E0001B219D8A494D0010E416E3950F0
:1027F800D8B4A0D03A0E0001896F7F0E00018A6F0D
:10280800F4EC06F097D04150D8A402D0010E01D0C4
:10281800000E3C6E3950D8B48BD0FB0E0001896F86
:102828007D0E00018A6F3CC08BF000018C6BF4ECCC
:1028380006F07ED04150D8A402D0010E01D0000E7F
:102848003A6E3950D8B474D0560E0001896F7E0E96
:1028580000018A6F3AC08BF000018C6BF4EC06F033
:1028680067D04150D8A402D0010E01D0000E3B6EB3
:102878003950D8B45DD0130E0001896F7E0E000167
:102888008A6F3BC08BF000018C6BF4EC06F050D0E3
:102898004150D8A44DD00001B2BF4AD03CC027F067
:1028A800286A3AC029F02A6A3BC02BF02C6AB2C0C9
:1028B8002DF090EC17F00001B36F3950D8B424D044
:1028C800810E0001896F7E0E00018A6FB3C08BF004
:1028D80000018C6BF4EC06F00001B351D6EC1AF051
:1028E80027502810D8B40DD0C60E0001896F7F0E6E
:1028F80000018A6FB3C08BF000018C6BF4EC06F01A
:1029080003D00A0E8AEC1BF00001B35115EC19F044
:102918000FD00001B251110AD8B48CD7030AD8B429
:1029280072D7060AD8B49DD74D0AD8B46CD7B0D799
:10293800000E416E1200FFFFFFFF7D0E0001896F40
:102948007D0E00018A6FF4EC06F0F90E0001896F24
:102958007C0E00018A6FF4EC06F0C80E0001896F46
:10296800750E00018A6FF4EC06F0DA0E0001896F2B
:10297800770E00018A6FF4EC06F0E30E0001896F10
:102988007D0E00018A6FF4EC06F0960E0001896F47
:102998007E0E00018A6FF4EC06F0080E0001896FC4
:1029A8007B0E00018A6FF4EC06F07F0E0001896F40
:1029B800790E00018A6FF4EC06F0B30E0001896FFE
:1029C8007B0E00018A6FF4EC06F0FD0E0001896FA2
:1029D800790E00018A6FF4EC06F0310E0001896F60
:1029E8007C0E00018A6FF4EC06F06C0E0001896F12
:1029F8007E0E00018A6FF4EC06F01200FFFF03EE72
:102A080083F012EE00F0EE6AE550E150FCE1E2508E
:102A1800FAE103EE00F0830EEE6AE806FDE102EE4D
:102A280000F0880EEE6AE806FDE101EE00F0C10E46
:102A3800EE6AE806FDE10001FC6BFB6B00EE34F08A
:102A4800240EEE6AE806FDE1880EF66E370EF76E84
:102A5800000EF86E0900F5CFF1F10900F5CFF2F19B
:102A68007C0EF66E370EF76E000EF86E00EEF5F07F
:102A780010EE06F00900F5CFEEFFE550E150FAE15F
:102A88008A0EF66E370EF76E000EF86E0900F5CF57
:102A98005AF059905992000EF86E0001C1EF00F0FB
:102AA800FFFF00018451000185110001861100011A
:102AB8008711D8B43AD0010E0001886F08D0000100
:102AC800D89084378537863787370001882B0001EF
:102AD80087AFF5D7000184510001805D0001855161
:102AE8000001815900018651000182590001875176
:102AF80000018359D8A010D0000184510001805FE3
:102B0800000185510001815B000186510001825B53
:102B1800000187510001835B0001D8908733863319
:102B2800853384330001882FD5D780C080F081C0D9
:102B380081F082C082F083C083F01200FFFFFFFFA4
:102B480035D027C0D9FF28C0DAFFDF50D8B410D05D
:102B580027C0D9FF28C0DAFFDF502D6E29C0F6FF45
:102B68002AC0F7FF0800FFFFF5502D18D8B41AD077
:102B780029C0F6FF2AC0F7FF0800FFFFF5502D6EA9
:102B88002E6A2D1E2E1E2D4A2E2A27C0D9FF28C098
:102B9800DAFFDF502F6E2F502D24276E000E2E20C7
:102BA800286E10D0274A282A294A2A2A2B06D8A074
:102BB8002C062B28C6E12C28D8A4C3D7000E286ED3
:102BC800000E276E1200FFFFFFFF000E2F6E000E93
:102BD800306E000E316E000E326E2B502C102D1000
:102BE8002E10D8B42AD0010E336E06D0D8902B36CA
:102BF8002C362D362E36332A2EAEF8D7D8902F36CF
:102C08003036313632362B50275C2C5028582D5010
:102C180029582E502A58D8A009D02B50275E2C505E
:102C2800285A2D50295A2E502A5A2F80D8902E32A1
:102C38002D322C322B32332EE1D72FC027F030C063
:102C480028F031C029F032C02AF01200FFFFFFFF40
:102C580020EE02F02C50D9262D50DA22DECF2EF0AD
:102C6800DDCF2FF0060E2E26000E2F222E502C24FC
:102C7800D96E2F502D20DA6EDF50306E20EE02F024
:102C88002C50D9262D50DA22DECF2EF0DDCF2FF0B2
:102C9800010E2E24276E000E2F20286E20EE04F041
:102CA8002C50D9262D50DA22DECF29F0DDCF2AF09C
:102CB80039EC19F020EE02F02C50D9262D50DA22EA
:102CC80027C0DEFF28C0DDFF30501200FFFFFFFFE6
:102CD80020EE04F02C50D9262D50DA22DECF2EF02B
:102CE800DDCF2FF02CC0D9FF2DC0DAFFDECF30F0BA
:102CF800DDCF31F020EE02F02C50D9262D50DA220B
:102D0800DECF32F0DDCF33F0321E331E324A332AA3
:102D180030503226315033222E503224276E2F5015
:102D28003320286E20EE04F02C50D9262D50DA22BC
:102D3800DECF29F0DDCF2AF039EC19F027C02CF0CE
:102D480028C02DF01200FFFFFFFF20EE04F0065010
:102D5800D9260750DA22DECF08F0DDCF09F006C009
:102D6800D9FF07C0DAFFDECF0AF0DDCF0BF020EE87
:102D780002F00650D9260750DA22DECF0CF0DDCF5C
:102D88000DF00C1E0D1E0C4A0D2A0A500C260B5075
:102D98000D2208500C24016E09500D20026E20EE01
:102DA80004F00650D9260750DA22DECF03F0DDCF33
:102DB80004F05CEC19F001C006F002C007F0120044
:102DC800FFFFFFFFB40E286E000E296E000E2B6E5B
:102DD800080E2A6E15EC1AF0390E0001896F760E6E
:102DE80000018A6FB2C08BF0B3C08CF0B4C08DF014
:102DF80000018E6BB5C08FF00001906BB6C091F0EA
:102E08000001926BB7C093F00001946BB8C095F0C5
:102E18000001966BB9C097F00001986BBAC099F0A1
:102E280000019A6BBBC09BF000019C6BF4EC06F0B0
:102E38001200FFFFFFFF2CC0D9FF2DC0DAFFDECF45
:102E48002FF0DDCF30F0060E2F26000E30222F5047
:102E58002C24D96E30502D20DA6E2EC0DFFF2CC006
:102E6800D9FF2DC0DAFFDECF2FF0DDCF30F0010E15
:102E78002F24276E000E3020286E20EE04F02C50F0
:102E8800D9262D50DA22DECF29F0DDCF2AF039EC11
:102E980019F02CC0D9FF2DC0DAFF27C0DEFF28C0EB
:102EA800DDFF1200FFFFFFFF06C0D9FF07C0DAFFF2
:102EB800DECF09F0DDCF0AF0060E0926000E0A2241
:102EC80009500624D96E0A500720DA6E08C0DFFFC1
:102ED80006C0D9FF07C0DAFFDECF09F0DDCF0AF060
:102EE800010E0924016E000E0A20026E20EE04F085
:102EF8000650D9260750DA22DECF03F0DDCF04F0E2
:102F08005CEC19F006C0D9FF07C0DAFF01C0DEFF8C
:102F180002C0DDFF1200FFFFFFFF000E316E000E42
:102F2800306E27502810D8B404D0000E316E010E30
:102F38000FD02B502C10D8B404D0000E316E020ED6
:102F480007D029502A10D8B404D0000E316E030ED1
:102F5800306E2D502E6E2F6AD8902E362F36D89080
:102F68002E362F3630502E2631502F22690E2E2421
:102F7800F66E710E2F20F76E0800FFFFF550120055
:102F8800FFFFFFFF80C02CF081C02DF06BEC16F026
:102F9800FF0E0001826FFF0E0001836F000120EE1B
:102FA80004F08051D9268151DA22DECF84F0DDCFBA
:102FB80085F000018251000184270001835100013E
:102FC80085232C500001841907E12D500001851933
:102FD800D8A402D0010E01D0000E1200FFFFFFFF9F
:102FE800000E2F6E000E306E000E316E000E326E27
:102FF80027A008D02B502F262C5030222D503122BC
:103008002E503222D8902B362C362D362E36D8908C
:103018002A322932283227322750281029102A101C
:10302800D8A4E6D72FC027F030C028F031C029F047
:1030380032C02AF01200FFFFFFFF295027C02AF0F4
:1030480028C02BF02BC02AF02B6A2A1A000E2B1A44
:10305800FF0E2A16000E2B16D8902A362B36690E2C
:103068002A24F66E6F0E2B20F76E0900FFFFF5CFAE
:103078002CF00900FFFFF5CF2DF027502F6E2E6A98
:103088002C502E18276E2D502F18286E1200FFFF77
:10309800FFFF000E0001826F000E0001816F000E1D
:1030A800806F12D082C027F0000180512F24D96E82
:1030B800000181513020DA6EDF5078EC18F0000101
:1030C800826F0001804B812B31500001805D00012F
:1030D8008151800A336E3250800A3358D8A0E2D723
:1030E800000182511200FFFFFFFF296E27C02EF05A
:1030F800000E2D6E000E2C6E2DBE06D02D501CE13C
:10310800080E2C5CD8B018D02EC028F0400E281617
:1031180028502A6E2B6A29AE02D0400E2A1AD8905F
:103128002936D8902E362A502B10D8B402D0090E42
:103138002E1A2C4A2D2AE0D72E501200FFFFFFFF2F
:1031480004D0274A282A294A2A2A27C0D9FF28C072
:10315800DAFFDF502B6E29C0F6FF2AC0F7FF080000
:10316800FFFFF55000082B242C6E2C50D8A407D054
:1031780027C0D9FF28C0DAFFDF50D8A4E2D72C50E7
:10318800276E286A27BE28061200FFFFFFFF13D00C
:1031980080C027F081C028F082C0D9FF83C0DAFF41
:1031A800DF50296E20EC18F027C080F028C081F08D
:1031B8000001824B832B00018407D8A085070001FA
:1031C8008429E6E100018529D8A4E2D780C080F0EF
:1031D80081C081F01200FFFFFFFF0EC006F00FC094
:1031E80007F0A8EC16F0FF0E106EFF0E116E20EE21
:1031F80004F00E50D9260F50DA22DECF12F0DDCFC0
:1032080013F010501226115013220650121806E11E
:1032180007501318D8A402D0010E01D0000E1200D6
:10322800FFFFFFFF0001866FF29E550E0001806FC1
:10323800010E0001816FC5EC17F00001876FF28E57
:10324800000187510001D8B404D0010E0101006FBC
:103258000AD0F29E550E2C6E010E2D6E86C02EF0F1
:103268001EEC17F0F28E1200FFFFFFFF29502A1004
:10327800D8B418D0010E2B6E04D0D89029362A362F
:103288002B2A2AAEFAD72950275C2A502858D8A0CA
:1032980004D02950275E2A50285AD8902A32293239
:1032A8002B2EF1D727C027F028C028F01200FFFFE7
:1032B800FFFF03500410D8B418D0010E056E04D0D7
:1032C800D89003360436052A04AEFAD70350015CB9
:1032D80004500258D8A004D00350015E0450025A8A
:1032E800D89004320332052EF1D701C001F002C094
:1032F80002F01200FFFFFFFF000E2D6E000E2C6E75
:1033080012D02C502824D96E2D502920DA6E2C503A
:103318002824E16E2D502920E26EE7506DEC1BF059
:10332800DF6E2C4A2D2A2A502C5C2B502D58D8B0F1
:103338001200E7D7FFFFFFFF2A6E000E2B6E0AD0A0
:10334800620E276E760EFFFFE82EFDD7272EFBD7DD
:1033580000D02B2A2A500A0D2B50276E286AF350CA
:10336800275C2850800A296EF450800A2958D8B062
:103378001200E6D7FFFFFFFF27C0D9FF28C0DAFFFA
:10338800000EDE6E000EDD6E20EE02F02750D9260C
:103398002850DA22000EDE6E000EDD6E20EE04F0FC
:1033A8002750D9262850DA2229C0DEFF2AC0DDFF9F
:1033B8001200FFFFFFFF0001B26F820E3F640AD0C8
:1033C8002B0E0001896F7B0E00018A6FF4EC06F06A
:1033D8003EEC1BF03F50010D000EF324D96E030E96
:1033E800F420DA6EB2C0DFFF3F2A1200FFFFFFFFB2
:1033F800000E2E6E000E2D6E0CD02D502824D96E86
:103408002E502920DA6EDF506DEC1BF02C6E2D4A01
:103418002E2A2A502D5C2B502E58D8B01200EDD7EA
:10342800FFFFFFFF000E2D6E000E2C6E0CD02C50EF
:103438002824D96E2D502920DA6EFF0E6DEC1BF072
:10344800DF6E2C4A2D2A2A502C5C2B502D58D8B0D0
:103458001200EDD7FFFFFFFF030ECA12010ECB6E5D
:10346800CA84939881888A949384C69A949A9488F3
:103478009496C698C650F00B0309C66EC78CC78EC3
:10348800C68A1200FFFFFFFF829C829E9E9A949C30
:10349800948EAC84B90EF66E730EF76E0800FFFFBB
:1034A800F5CFAFFFAC98AB8EAB88AC9AAC8A9D9841
:1034B8009D8A1200FFFFFFFF2C6E010E2B6E7B0E04
:1034C8002C6003D0610E2C6007D02C50B4EC1AF09D
:1034D800D8B002D0000E2B6E2BC02AF02A30120072
:1034E800FFFFFFFF296E010E286E200E2918D8B4A1
:1034F80008D00E0E296003D0090E296002D0000EF4
:10350800286E28C027F027301200FFFFFFFF275042
:103518002902F3CF2BF0F4CF2CF027502A02F350D6
:103528002C2628502902F3502C262BC027F02CC01B
:1035380028F01200FFFFFFFF146E9B0E0E6E010EA7
:103548000F6EF0EC18F00009D8A408D09B0E066E98
:10355800010E076E14C008F057EC17F01200FFFFB9
:10356800FFFF296E000E286E5B0E296005D0400E05
:10357800296402D0010E286E28C027F027301200D7
:10358800FFFFFFFF296E000E286E3A0E296005D056
:103598002F0E296402D0010E286E28C027F027308C
:1035A8001200FFFFFFFF2A6E000E296E1F0E2A640D
:1035B80005D07F0E2A6002D0010E296E29C027F09F
:1035C800286A1200FFFFFFFFC184C182C180968074
:1035D80096829684000E8C6E968883CF87F29E9E84
:1035E8009D8E1200FFFFFFFF80C02CF081C02DF0E0
:1035F8006BEC16F02C502D10D8A402D0010E01D07F
:10360800000E1200FFFFFFFFD190F00E926E94940F
:10361800949294908B9093868A96928C899C1200AF
:10362800FFFFFFFF8A9693960A0E276EBE0EFFFFD6
:10363800E82EFDD7272EFBD700D01200FFFFFFFF93
:10364800899C929C0A0E276EBE0EFFFFE82EFDD7BE
:10365800272EFBD700D01200FFFFFFFFAEEC1BF0B8
:103668000A0E9FEC19F0A9EC1BF0140E9FEC19F050
:103678001200FFFFFFFF050E806E050E9FEC19F08C
:103688000A0E806E050E9FEC19F0F5D7FFFFFFFFBD
:10369800276E7B0E276004D0600E276401D0279A1E
:1036A80027501200FFFFFFFFF29E000E3E6E000E35
:1036B8003D6E000E0101046FF28E1200FFFFFFFF46
:1036C800000E3D6E3FC03EF0010E0101046F120076
:1036D800FFFFFFFF276E27C0C9FFC7A0FED7040062
:1036E800C9501200FFFFFFFFF29E000E0001FB6FA2
:1036F800000E386EF28E1200FFFFFFFF276E0400E7
:103708009EA8FED727C0ADFF1200FFFFFFFF286E5F
:10371800285081EC1BF004001200FFFFFFFFF18C22
:10372800F292F2881200FFFFFFFF070E8AEC1BF0EF
:103738001200FFFFFFFFF28CF28EF28E1200FFFFE5
:10374800FFFF000E3F6E1200FFFFFFFF93948A9465
:103758001200FFFFFFFF93841200FFFFFFFF819815
:103768001200FFFFFFFF93861200FFFFFFFF928CFE
:103778001200FFFF0200007DE5FEFFFF1200FFFFC1
:04378800FFFF01003E
:106F68000000002110422063308440A550C660E72D
:106F780070088129914AA16BB18CC1ADD1CEE1EFE6
:106F8800F13112100273325222B5529442F772D67E
:106F980062399318837BB35AA3BDD39CC3FFF3DE36
:106FA800E36224433420040114E664C774A44485CE
:106FB800546AA54BB528850995EEE5CFF5ACC58D86
:106FC800D55336722611163006D776F6669556B41E
:106FD800465BB77AA719973887DFF7FEE79DD7BCD6
:106FE800C7C448E5588668A778400861180228236E
:106FF80038CCC9EDD98EE9AFF9488969990AA92B26
:10700800B9F55AD44AB77A966A711A500A333A12BD
:107018002AFDDBDCCBBFFB9EEB799B588B3BBB1A75
:10702800ABA66C877CE44CC55C222C033C600C410D
:107038001CAEED8FFDECCDCDDD2AAD0BBD688D49C5
:107048009D977EB66ED55EF44E133E322E511E705D
:107058000E9FFFBEEFDDDFFCCF1BBF3AAF599F7815
:107068008F8891A981CAB1EBA10CD12DC14EF16FC6
:10707800E18010A100C230E320045025404670672B
:1070880060B9839893FBA3DAB33DC31CD37FE35E57
:10709800F3B1029012F322D232354214527762567B
:1070A80072EAB5CBA5A89589856EF54FE52CD50D67
:1070B800C5E234C324A014810466744764245405CB
:1070C80044DBA7FAB79987B8975FE77EF71DC73CF7
:1070D800D7D326F2369106B016576676761546341B
:1070E800564CD96DC90EF92FE9C899E9898AB9AB07
:1070F800A94458654806782768C018E1088238A36B
:10710800287DCB5CDB3FEB1EFBF98BD89BBBAB9A96
:10711800BB754A545A376A167AF10AD01AB32A92BA
:107128003A2EFD0FED6CDD4DCDAABD8BADE89DC9A6
:107138008D267C076C645C454CA23C832CE01CC10A
:107148000C1FEF3EFF5DCF7CDF9BAFBABFD98FF836
:107158009F176E367E554E745E932EB23ED10EF05A
:107168001E3F3F3F3F393939393F3F3F3F3535357E
:1071780035333333333131313132323232313131E7
:10718800313F3F3F3F313131313838383836363684
:10719800363434343409090909607E60603F3F3F62
:1071A8003F3F3F3F3F3F3F3F3F3F3F3F3F3F3F3FE7
:1071B8003F3F3F3F3F71511111312131313F3F3F37
:1071C8003F3F3F3F3F3F3F3F3F7A5A1A1A7353139F
:1071D800136141010177571717324032323F3F3F61
:1071E8003F3F3F3F3F634303037858181864440404
:1071F800046545050534243434332333333F3F3F96
:107208003F3F3F3F3F202020207656161666460611
:10721800067454141472521212352535353F3F3F07
:107228003F3F3F3F3F6E4E0E0E62420202684808E3
:10723800086747070779591919365E36363F3F3FC1
:107248003F3F3F3F3F3F3F3F3F6D4D0D0D6A4A0A6D
:107258000A7555151537263737382A38383F3F3FCE
:107268003F3F3F3F3F2C3C2C2C6B4B0B0B69490994
:10727800096F4F0F0F30293030392839393F3F3FD8
:107288003F3F3F3F3F2E3E2E2E2F3F2F2F6C4C0C63
:107298000C3B3A3B3B705010102D5F2D2D3F3F3F6C
:1072A8003F3F3F3F3F3F3F3F3F272227273F3F3F4B
:1072B8003F5B7B5B5B3D2B3D3D3F3F3F3F3F3F3F60
:1072C8003F3F3F3F3F3F3F3F3F0D0D0D0D5D7D5D14
:1072D8005D3F3F3F3F5C7C5C5C3F3F3F3F3F3F3F04
:1072E8003F3F3F3F3F3F3F3F3F3F3F3F3F3F3F3FA6
:1072F8003F3F3F3F3F3F3F3F3F080808083F3F3F72
:107308003F3F3F3F3F313131313F3F3F3F343434DE
:1073180034373737373F3F3F3F3F3F3F3F3F3F3FA0
:107328003F303030302E2E2E2E3232323235353537
:107338003536363636383838381B1B1B1B3F3F3F2F
:107348003F313131312B2B2B2B333333332D2D2D33
:107358002D2A2A2A2A393939393F3F3F3F3F3F3FB3
:107368003F010000000A00000064000000E803007C
:107378000010270000A086010040420F0080969868
:107388000000E1F50500CA9A3B010000001000006A
:1073980000000100000010000000000100000010C3
:1073A800000000000100000010010686010102062D
:1073B8008815007364636172645F777269746562CB
:1073C8006C6F636B3A206661696C656420746F202A
:1073D800726573706F6E64207769746820444154D5
:1073E800415F41434345505445442C2072657370B6
:1073F8006F6E736520776173203078253032580AB4
:10740800007364636172645F7772697465626C6F3C
:10741800636B3A206661696C656420746F207265DD
:1074280073706F6E642077697468205355434345C1
:1074380053532C20726573706F6E73652077617378
:10744800203078253032580A007364636172645FB3
:1074580072656164626C6F636B3A206661696C6522
:107468006420746F20726573706F6E64207769741E
:107478006820535543434553532C20726573706FEE
:107488006E736520776173203078253032580A0092
:10749800435243206D69736D617463682028746872
:1074A8006569727320253034582076657273757358
:1074B800206F75727320253034582C207265706FD8
:1074C8007274696E67206661696C757265290A0055
:1074D8007364636172645F696E69743A206E6F7475
:1074E80020696E2049444C45206D6F646520666FA5
:1074F8007220434D4435352C20726573706F6E735E
:107508006520776173203078253032580A0073641B
:10751800636172645F696E69743A206661696C655B
:107528006420746F20656E7465722049444C452050
:107538006D6F64652C20726573706F6E736520774C
:107548006173203078253032580A00777269746583
:10755800206469736B2025642C20736563746F72D3
:107568002025642C20747261636B202564202D3ED5
:1075780020626C6F636B2025642C206F66667365D0
:10758800742025640A0072656164206469736B2045
:1075980025642C20736563746F722025642C207415
:1075A8007261636B202564202D3E20626C6F636BD3
:1075B8002025642C206F66667365742025640A0094
:1075C80062756666657273202D207072696E74200C
:1075D80073756D6D617279206F6620636F6D6D6173
:1075E8006E6420616E6420726573706F6E736520BF
:1075F800627566666572730A007364636172645FBC
:10760800696E69743A2074696D6564206F757420B9
:1076180077616974696E67206F6E207472616E732A
:107628006974696F6E20746F2041434D4434310A88
:1076380000747261696C696E672025733A20253081
:107648003258202530325820253032582025303203
:1076580058202530325820253032582025303258CD
:1076680020253032580A007364636172645F696E62
:1076780069743A206661696C656420746F20676577
:1076880074204F43522C20726573706F6E7365209F
:10769800776173203078253032580A00636F6D6D3A
:1076A800616E6420636F6E73747275637465643A97
:1076B80020253032582025303258202530325820A5
:1076C80025303258202530325820253032580A00CB
:1076D80073656E645F7364636172645F636F6D6D1D
:1076E800616E643A2074696D6564206F75742077E3
:1076F800616974696E67206F6E20726573706F6E52
:1077080073650A007364636172645F7265616462C1
:107718006C6F636B3A2074696D6564206F757420B3
:1077280077616974696E6720666F7220646174613D
:1077380020746F6B656E0A007364636172645F77AF
:1077480072697465626C6F636B3A2074696D656405
:10775800206F75742077616974696E67206F6E2079
:10776800636F6D706C6574696F6E0A00726574750D
:10777800726E656420696E206275666665723A206D
:1077880025303258202530325820253032582025CF
:10779800303258202530325820253032580A0073AC
:1077A80064636172645F72656164626C6F636B3A93
:1077B8002074696D6564206F7574207761697469D8
:1077C8006E67206F6E20636F6D706C6574696F6E85
:1077D8000A007265736574202D20726573657420C4
:1077E8005A383020616E6420636C65617220636F63
:1077F8006D6D756E69636174696F6E20627566661A
:107808006572730A0050414E49433A206661696CBB
:10781800656420746F20737461727420616363659A
:10782800737320746F205344206361726420617302
:10783800205350490A005072657373204354524CC8
:107848002D41207468656E204354524C2D4220749B
:107858006F2072657475726E20746F206D6F6E691B
:10786800746F722E0A0025642050535020696E747C
:1078780065727275707473207768656E2052442043
:10788800776173207374696C6C20617373657274AB
:1078980065642E0A006C6F6F70656420256420741F
:1078A800696D65732077616974696E67206F6E20F2
:1078B800777269746520746F20636F6D706C65747E
:1078C800652E0A00636865636B73756D2063616C70
:1078D80063756C617465642061732025753A203086
:1078E8007825303258207468656E2030782530321B
:1078F800580A00526573657474696E67205A2D388A
:107908003020616E6420636F6D6D756E696361749C
:10791800696F6E20627566666572732E2E2E0A0078
:107928004552524F523A20556E6B6E6F776E20500B
:10793800494320636F6D6D616E6420307825303265
:10794800582072656365697665640A005049435F2B
:10795800434D445F57524954455F53554D20636822
:1079680065636B73756D20646F6573206E6F74202B
:107978006D617463680A00636C656172202D206311
:107988006C65617220636F6D6D616E6420616E64F9
:1079980020726573706F6E736520627566666572B6
:1079A8000A005344204361726420696E74657266EC
:1079B80061636520697320696E697469616C697AAD
:1079C800656420666F72205350490A00486D2C2068
:1079D80063686172207761736E27742061637475C0
:1079E800616C6C7920726561647920617420434F01
:1079F8004E494E0A0076657273696F6E202D2070AD
:107A080072696E74206669726D776172652062753D
:107A1800696C642076657273696F6E0A005741520B
:107A28004E494E473A204B6579626F617264206413
:107A3800617461207175657565206F766572666C15
:107A48006F770A005741524E494E473A20436F6EAE
:107A5800736F6C6520696E707574207175657565D6
:107A6800206F766572666C6F770A00756E65787040
:107A7800656374656420636F6D6D616E6420307832
:107A8800253032582066726F6D20686F7374210A32
:107A9800007364636172645F696E69743A204F436E
:107AA8005220726573706F6E736520697320307829
:107AB8002530386C580A00526573706F6E736520F4
:107AC8006E657874206279746520746F207075749F
:107AD800206F6E206275733A2025640A00436F6D2B
:107AE8006D616E6420616E6420726573706F6E7371
:107AF80065206461746120636C65617265640A0065
:107B080064756D706B6264202D20746F67676C6597
:107B18002064756D70696E67206B6579626F61723C
:107B2800640A0050414E49433A206F766572666C8C
:107B38006F77656420726573706F6E736520627508
:107B4800666665720A00736F6D65206B696E6420E6
:107B58006F6620626C6F636B20777269746520664C
:107B680061696C7572650A0053657269616C206998
:107B78006E7075742072657475726E656420746FAA
:107B8800206D6F6E69746F720A004552524F523AF7
:107B9800204D69737365642061207772697465206C
:107BA80066726F6D205A2D38300A00706173732029
:107BB8002D2070617373206D6F6E69746F72206B06
:107BC80065797320746F205A38300A00736F6D65B9
:107BD800206B696E64206F6620626C6F636B207225
:107BE800656164206661696C7572650A004E6F7420
:107BF8002064756D70696E67206B6579626F61725C
:107C08006420646174612E2E2E0A0077726974658F
:107C1800626C6F636B20636F6D706C6574696F6EF7
:107C2800203078253032580A0072656164204E2071
:107C38002D207265616420616E642064756D70200A
:107C4800626C6F636B0A00416C696365203320497D
:107C58002F4F20504943206669726D776172652CF9
:107C68002025730A0061736B656420666F72206457
:107C780069736B206F7574206F662072616E67651B
:107C88000A0072657475726E65642066726F6D2085
:107C980041434D4434313A20253032580A00777236
:107CA800697465626C6F636B20726573706F6E7355
:107CB80065203078253032580A00536174204465B5
:107CC8006320352031333A33333A35322050535418
:107CD80020323031350072656164626C6F636B20ED
:107CE800726573706F6E7365203078253032580A6C
:107CF800006465627567204E202D207365742064CA
:107D080065627567206C6576656C0A0052657370EC
:107D18006F6E7365206C656E6774683A2025642001
:107D280062797465730A0044756D70696E67206BBB
:107D38006579626F61726420646174612E2E2E0A07
:107D4800006B6579626F617264207363616E206392
:107D58006F64653A20253032580A00726573706F77
:107D68006E7365207061636B657420776173207230
:107D78006561640A0068656C70202D2074686973F9
:107D88002068656C70206D6573736167650A0043D0
:107D98006F6D6D616E64206C656E6774683A20253E
:107DA800642062797465730A00426C6F636B2061AA
:107DB8006C726561647920696E2063616368652E01
:107DC8000A00436F6D6D616E64207265717565732D
:107DD800743A203078253032580A00696E74202DA4
:107DE8002073656E64202F494E5420746F205A38D2
:107DF800300A00736869667420737461747573203F
:107E08006973206E6F772025640A006374726C2092
:107E1800737461747573206973206E6F772025649D
:107E28000A00526573657474696E67205344206351
:107E38006172642E2E2E0A0077696C6C207265734D
:107E4800706F6E6420776974682025640A00616C1D
:107E58007420737461747573206973206E6F772052
:107E680025640A0070616E6963202D20666F726355
:107E7800652070616E69630A006B6579626F617273
:107E8800642041534349493A2025303258007364ED
:107E98007265736574202D20726573657420534470
:107EA8000A00496E746572757074696E67205A2D80
:107EB80038302E2E2E004352432069732030782507
:107EC800303258253032580A00556E6B6E6F776E17
:107ED80020636F6D6D616E642E0A00526573706F5A
:107EE8006E7365206275666665723A0A004E65773C
:107EF8002063616368656420626C6F636B0A00309D
:107F080031323334353637383941424344454600F7
:107F1800436F6D6D616E64206275666665723A0ABC
:107F28000064656275672073657420746F2025642A
:107F38000A006B6579626F617264206B65792075E0
:107F4800700A00777269746520636F6D706C657470
:107F5800696F6E007265616420636F6D706C657423
:107F6800696F6E00435243206D6174636865730ADC
:107F780000252A73202020202020202000252A7375
:107F88003078253034583A200064756D706B62641F
:107F98000076657273696F6E0062756666657273E6
:107FA800007364726573657400286E756C6C2900C3
:107FB800434F4E53540A00646562756720002825B4
:107FC80063290A0025303258200072656164200058
:107FD80070616E696300636C6561720020256320BF
:107FE8000068656C70007061737300696E74002AB4
:087FF80020003F0068000000BA
:020000040020DA
:08000000FFFFFFFFFFFFFFFF00
:020000040030CA
:0E000000FF250F0EFF0081FF0FC00FE00F4025
:00000001FF
